:1000000000308A001028000020302B078400831362
:100010000008AC008316880183122C0888000800B1
:1000200003081F39830083161F149F141F159F1187
:100030008313FC308312A0006030A100DA30A200EC
:10004000F230A3006630A400B630A500BE30A60092
:10005000E030A700FE30A800F630A900AA01003069
:1000600083168800243086008312AB010420831697
:100070000615831206194728AA08031DAA032A0891
:10008000AB000420831606158312061D4228831632
:1000900086168312861A58282A08083C0318AA0ACA
:1000A0002A08AB000420831686168312861E532866
:0400B000372863008A
:02400E00313F40
:00000001FF
;PIC16F877
;CRC=7CD9  CREATED="09-set-21 20:44"
